{
  "contractName": "URLTokenrowdSale",
  "abi": [
    {
      "constant": true,
      "inputs": [],
      "name": "count",
      "outputs": [
        {
          "name": "",
          "type": "uint256"
        }
      ],
      "payable": false,
      "stateMutability": "view",
      "type": "function"
    },
    {
      "constant": false,
      "inputs": [],
      "name": "withdraw",
      "outputs": [],
      "payable": false,
      "stateMutability": "nonpayable",
      "type": "function"
    },
    {
      "constant": true,
      "inputs": [],
      "name": "wallet",
      "outputs": [
        {
          "name": "",
          "type": "address"
        }
      ],
      "payable": false,
      "stateMutability": "view",
      "type": "function"
    },
    {
      "constant": true,
      "inputs": [],
      "name": "owner",
      "outputs": [
        {
          "name": "",
          "type": "address"
        }
      ],
      "payable": false,
      "stateMutability": "view",
      "type": "function"
    },
    {
      "constant": true,
      "inputs": [],
      "name": "price",
      "outputs": [
        {
          "name": "",
          "type": "uint256"
        }
      ],
      "payable": false,
      "stateMutability": "view",
      "type": "function"
    },
    {
      "constant": false,
      "inputs": [
        {
          "name": "_rate",
          "type": "uint256"
        }
      ],
      "name": "setEthUSD",
      "outputs": [],
      "payable": false,
      "stateMutability": "nonpayable",
      "type": "function"
    },
    {
      "constant": true,
      "inputs": [],
      "name": "AVG_NUM_INVESTORS",
      "outputs": [
        {
          "name": "",
          "type": "uint256"
        }
      ],
      "payable": false,
      "stateMutability": "view",
      "type": "function"
    },
    {
      "constant": true,
      "inputs": [],
      "name": "ethUSD",
      "outputs": [
        {
          "name": "",
          "type": "uint256"
        }
      ],
      "payable": false,
      "stateMutability": "view",
      "type": "function"
    },
    {
      "constant": true,
      "inputs": [],
      "name": "WEI_DECIMALS",
      "outputs": [
        {
          "name": "",
          "type": "uint256"
        }
      ],
      "payable": false,
      "stateMutability": "view",
      "type": "function"
    },
    {
      "constant": false,
      "inputs": [
        {
          "name": "_wallet",
          "type": "address"
        }
      ],
      "name": "setWallet",
      "outputs": [],
      "payable": false,
      "stateMutability": "nonpayable",
      "type": "function"
    },
    {
      "constant": false,
      "inputs": [
        {
          "name": "_buyer",
          "type": "address"
        }
      ],
      "name": "buyTokens",
      "outputs": [],
      "payable": true,
      "stateMutability": "payable",
      "type": "function"
    },
    {
      "constant": true,
      "inputs": [],
      "name": "token",
      "outputs": [
        {
          "name": "",
          "type": "address"
        }
      ],
      "payable": false,
      "stateMutability": "view",
      "type": "function"
    },
    {
      "inputs": [
        {
          "name": "_wallet",
          "type": "address"
        },
        {
          "name": "_token",
          "type": "address"
        }
      ],
      "payable": false,
      "stateMutability": "nonpayable",
      "type": "constructor"
    },
    {
      "payable": true,
      "stateMutability": "payable",
      "type": "fallback"
    }
  ],
  "bytecode": "0x606060405261044c600355341561001557600080fd5b6040516040806106c7833981016040528080519190602001805160008054600160a060020a03338116600160a060020a0319928316178355600592909255600180549383169382169390931790925560028054959091169490911693909317909255505061063f806100886000396000f3006060604052600436106100a05763ffffffff60e060020a60003504166306661abd81146100ab5780633ccfd60b146100d0578063521eb273146100e35780638da5cb5b14610112578063a035b1fe14610125578063a6e59e0914610138578063abfd4a091461014e578063ac48bd5a14610161578063d387cad914610174578063deaa59df14610187578063ec8ac4d8146101a6578063fc0c546a146101ba575b6100a9336101cd565b005b34156100b657600080fd5b6100be6102a6565b60405190815260200160405180910390f35b34156100db57600080fd5b6100a96102ac565b34156100ee57600080fd5b6100f6610302565b604051600160a060020a03909116815260200160405180910390f35b341561011d57600080fd5b6100f6610311565b341561013057600080fd5b6100be610320565b341561014357600080fd5b6100a9600435610326565b341561015957600080fd5b6100be610353565b341561016c57600080fd5b6100be610359565b341561017f57600080fd5b6100be61035f565b341561019257600080fd5b6100a9600160a060020a036004351661036b565b6100a9600160a060020a03600435166101cd565b34156101c557600080fd5b6100f66103b5565b600080600160a060020a03831615156101e557600080fd5b3491506101f1826103c4565b60015460008054929350600160a060020a03918216926323b872dd921690869085906040516020015260405160e060020a63ffffffff8616028152600160a060020a0393841660048201529190921660248201526044810191909152606401602060405180830381600087803b151561026957600080fd5b6102c65a03f1151561027a57600080fd5b50505060405180519050151561028f57600080fd5b610298836103f0565b506102a161047e565b505050565b60055481565b60005433600160a060020a039081169116146102c757600080fd5b600254600160a060020a039081169030163180156108fc0290604051600060405180830381858888f19350505050151561030057600080fd5b565b600254600160a060020a031681565b600054600160a060020a031681565b60045481565b60005433600160a060020a0390811691161461034157600080fd5b6000811161034e57600080fd5b600355565b61271081565b60035481565b670de0b6b3a764000081565b60005433600160a060020a0390811691161461038657600080fd5b6002805473ffffffffffffffffffffffffffffffffffffffff1916600160a060020a0392909216919091179055565b600154600160a060020a031681565b6000806103df6103d26104b2565b849063ffffffff6105a816565b90508015156103ea57fe5b92915050565b600154600090600160a060020a03166370a0823183836040516020015260405160e060020a63ffffffff8416028152600160a060020a039091166004820152602401602060405180830381600087803b151561044b57600080fd5b6102c65a03f1151561045c57600080fd5b505050604051805115159050610476576005805460010190555b505060055490565b600254600160a060020a03163480156108fc0290604051600060405180830381858888f19350505050151561030057600080fd5b600080808080806104e360076104d7670de0b6b3a7640000606463ffffffff6105a816565b9063ffffffff6105c916565b945061050460076104d7670de0b6b3a76400006103e863ffffffff6105a816565b935061051b600354856105a890919063ffffffff16565b9250610532600354866105a890919063ffffffff16565b915061055661271061054a848663ffffffff6105ee16565b9063ffffffff6105a816565b905061057d610570600554836105c990919063ffffffff16565b849063ffffffff61060316565b6004819055829011156105905760048290555b600454151561059b57fe5b6004549550505050505090565b60008082116105b657600080fd5b81838115156105c157fe5b049392505050565b8181028215806105e357508183828115156105e057fe5b04145b15156103ea57600080fd5b6000828211156105fd57600080fd5b50900390565b818101828110156103ea57600080fd00a165627a7a72305820dbbfd576f11b4f717985f03390b50531974b91cf5fb599efbb63086c4a1e39120029",
  "source": "pragma solidity ^0.4.18;\n\n\n// ----------------------------------------------------------------------------\n\n// 'URL' 'URLCOIN' token contract\n//\n// Symbol      : URL\n// Name        : URLcoin\n// Total supply: 84,000,000.0000000000\n// Decimals    : 18\n// ----------------------------------------------------------------------------\n\n\n\n// ----------------------------------------------------------------------------\n\n// Safe maths\n\n// ----------------------------------------------------------------------------\n\nlibrary SafeMath {\n\n    function add(uint a, uint b) internal pure returns (uint c) {\n\n        c = a + b;\n\n        require(c >= a);\n\n    }\n\n    function sub(uint a, uint b) internal pure returns (uint c) {\n\n        require(b <= a);\n\n        c = a - b;\n\n    }\n\n    function mul(uint a, uint b) internal pure returns (uint c) {\n\n        c = a * b;\n\n        require(a == 0 || c / a == b);\n\n    }\n\n    function div(uint a, uint b) internal pure returns (uint c) {\n\n        require(b > 0);\n\n        c = a / b;\n\n    }\n\n}\n\n\n\n// ----------------------------------------------------------------------------\n\n// ERC Token Standard #20 Interface\n\n// https://github.com/ethereum/EIPs/blob/master/EIPS/eip-20-token-standard.md\n\n// ----------------------------------------------------------------------------\n\ncontract ERC20Interface {\n\n    function totalSupply() public constant returns (uint);\n\n    function balanceOf(address tokenOwner) public constant returns (uint balance);\n\n    function allowance(address tokenOwner, address spender) public constant returns (uint remaining);\n\n    function transfer(address to, uint tokens) public returns (bool success);\n\n    function approve(address spender, uint tokens) public returns (bool success);\n\n    function transferFrom(address from, address to, uint tokens) public returns (bool success);\n\n\n    event Transfer(address indexed from, address indexed to, uint tokens);\n\n    event Approval(address indexed tokenOwner, address indexed spender, uint tokens);\n\n}\n\n\n\n// ----------------------------------------------------------------------------\n\n// Owned contract\n\n// ----------------------------------------------------------------------------\n\ncontract Owned {\n\n    address public owner;\n\n    function Owned() public {\n\n        owner = msg.sender;\n\n    }\n\n\n    modifier onlyOwner {\n\n        require(msg.sender == owner);\n\n        _;\n\n    }\n\n}\n\n\n\n// ----------------------------------------------------------------------------\n\n// ERC20 Token, with the addition of symbol, name and decimals and an\n\n// initial fixed supply\n\n// ----------------------------------------------------------------------------\n\ncontract URLToken is ERC20Interface, Owned {\n\n    using SafeMath for uint;\n\n\n    string public symbol;\n\n    string public  name;\n\n    uint8 public decimals;\n\n    uint public _totalSupply;\n    \n    mapping(address => uint) balances;\n\n    mapping(address => mapping(address => uint)) allowed;\n\n\n\n    // ------------------------------------------------------------------------\n\n    // Constructor\n\n    // ------------------------------------------------------------------------\n\n    function URLToken() public {\n\n        symbol = \"URL\";\n\n        name = \"URLcoin\";\n\n        decimals = 18;\n\n        _totalSupply = 84000000 * 10**uint(decimals);\n\n        balances[owner] = _totalSupply;\n\n        Transfer(address(0), owner, _totalSupply);\n\n    }\n\n\n    // ------------------------------------------------------------------------\n\n    // Total supply\n\n    // ------------------------------------------------------------------------\n\n    function totalSupply() public constant returns (uint) {\n\n        return _totalSupply  - balances[address(0)];\n\n    }\n\n\n\n    // ------------------------------------------------------------------------\n\n    // Get the token balance for account `tokenOwner`\n\n    // ------------------------------------------------------------------------\n\n    function balanceOf(address tokenOwner) public constant returns (uint balance) {\n\n        return balances[tokenOwner];\n\n    }\n\n\n\n    // ------------------------------------------------------------------------\n\n    // Transfer the balance from token owner's account to `to` account\n\n    // - Owner's account must have sufficient balance to transfer\n\n    // - 0 value transfers are allowed\n\n    // ------------------------------------------------------------------------\n\n    function transfer(address to, uint tokens) public returns (bool success) {\n\n        balances[msg.sender] = balances[msg.sender].sub(tokens);\n\n        balances[to] = balances[to].add(tokens);\n\n        Transfer(msg.sender, to, tokens);\n\n        return true;\n\n    }\n\n\n\n    // ------------------------------------------------------------------------\n\n    // Token owner can approve for `spender` to transferFrom(...) `tokens`\n\n    // from the token owner's account\n\n    //\n\n    // https://github.com/ethereum/EIPs/blob/master/EIPS/eip-20-token-standard.md\n\n    // recommends that there are no checks for the approval double-spend attack\n\n    // as this should be implemented in user interfaces \n\n    // ------------------------------------------------------------------------\n\n    function approve(address spender, uint tokens) public returns (bool success) {\n\n        allowed[msg.sender][spender] = tokens;\n\n        Approval(msg.sender, spender, tokens);\n\n        return true;\n\n    }\n\n\n\n    // ------------------------------------------------------------------------\n\n    // Transfer `tokens` from the `from` account to the `to` account\n\n    // \n\n    // The calling account must already have sufficient tokens approve(...)-d\n\n    // for spending from the `from` account and\n\n    // - From account must have sufficient balance to transfer\n\n    // - Spender must have sufficient allowance to transfer\n\n    // - 0 value transfers are allowed\n\n    // ------------------------------------------------------------------------\n\n    function transferFrom(address from, address to, uint tokens) public returns (bool success) {\n\n        balances[from] = balances[from].sub(tokens);\n\n        allowed[from][msg.sender] = allowed[from][msg.sender].sub(tokens);\n\n        balances[to] = balances[to].add(tokens);\n\n        Transfer(from, to, tokens);\n\n        return true;\n\n    }\n\n\n\n    // ------------------------------------------------------------------------\n\n    // Returns the amount of tokens approved by the owner that can be\n\n    // transferred to the spender's account\n\n    // ------------------------------------------------------------------------\n\n    function allowance(address tokenOwner, address spender) public constant returns (uint remaining) {\n\n        return allowed[tokenOwner][spender];\n\n    }\n\n    // ------------------------------------------------------------------------\n    // Owner can withdraw ether if token received.\n    // ------------------------------------------------------------------------\n    function withdraw() public onlyOwner returns (bool result) {\n        \n        return owner.send(this.balance);\n        \n    }\n    \n    // ------------------------------------------------------------------------\n\n    // Owner can transfer out any accidentally sent ERC20 tokens\n\n    // ------------------------------------------------------------------------\n\n    function transferAnyERC20Token(address tokenAddress, uint tokens) public onlyOwner returns (bool success) {\n\n        return ERC20Interface(tokenAddress).transfer(owner, tokens);\n\n    }\n\n}\n\ncontract URLTokenrowdSale is Owned {\n\n  using SafeMath for uint256;\n  \n    URLToken public token;\n\n    address public wallet;\n\n    uint256 constant public WEI_DECIMALS = 10**18;\n\n    uint256 public ethUSD = 1100;\n\n    uint256 public price;\n\n    //@dev global count for the number of buyers\n    uint256 public count;\n\n    uint256 constant public AVG_NUM_INVESTORS = 10000;\n\n    function URLTokenrowdSale (address _wallet, address _token) {\n\n        count = 0;\n\n        token = URLToken(_token);\n\n        wallet = _wallet;\n    }\n\n    // ------------------------------------------------------------------------\n\n    // Do accept ETH\n\n    // ------------------------------------------------------------------------\n\n    function () public payable {\n\n        buyTokens(msg.sender);\n    }\n\n    //-------------------------------------------------------------------------\n    // Buy Token\n    //-------------------------------------------------------------------------\n    function buyTokens(address _buyer) public payable {\n\n        require(_buyer != 0x0);\n\n        uint256 weiAmount = msg.value;\n        \n        uint256 tokens = calculateTokens(weiAmount);\n        \n        require(token.transferFrom(owner, _buyer, tokens));    \n\n        allowOnce(_buyer);\n\n        forwardFunds();\n    }\n\n    //-------------------------------------------------------------------------\n    // Calculate the amount of tokens the buyer can purchase\n    // based on the eth sent and how many other people bought before.\n    // Token price increases each time this function is called.\n    // @param _weiAmount is the amount of wei/eth the buyer sent \n    //-------------------------------------------------------------------------\n\n    function calculateTokens(uint256 _weiAmount) internal returns (uint256)\n    {\n        uint256 tokens = _weiAmount.div(priceOf());\n\n        assert(tokens != 0);\n\n        return tokens;\n    }\n    /// at $0.007 cap at $0.07 10000 average investors not allow same buyer to drive up the price\n    /// @notice this function is set up to calculate the price of the tokens on a sliding scale. \n    /// incremented each time the buy function is executed.\n    /// @dev verify etherPrice before purhing the contract live.\n    /// @dev confirm the averageNumInvestors of 5000 is acceptable.\n\n    function priceOf()\n        internal\n        returns (uint256)\n    {\n        uint256 maxTokenPrice = WEI_DECIMALS.div(100).mul(7); //max price $0.07 USD per token multiplied by wei early to avoid truncation by division.\n\n        uint256 minTokenPrice = WEI_DECIMALS.div(1000).mul(7); //min price $0.007 USD per token multiplied by wei early to avoid truncation by division.\n\n        uint256 minWeiPerToken = minTokenPrice.div(ethUSD);\n\n        uint256 maxWeiPerToken = maxTokenPrice.div(ethUSD);\n\n        uint256 increments = (maxWeiPerToken.sub(minWeiPerToken)).div(AVG_NUM_INVESTORS); \n\n        price = minWeiPerToken.add(increments.mul(count));\n        \n        if (price > maxWeiPerToken) {\n\n            price = maxWeiPerToken;\n\n        }\n\n        assert(price != 0);\n        \n        return price;\n    }\n\n\n    function setEthUSD(uint _rate) public onlyOwner {\n\n        require(_rate > 0);\n\n        ethUSD = _rate;\n    }\n\n    function allowOnce(address _buyer) internal returns (uint256) {\n\n        if(token.balanceOf(_buyer) == 0){\n\n            count++;\n        }\n\n        return count;\n    }\n\n    // send ether to the fund collection wallet\n    // override to create custom fund forwarding mechanisms\n    function forwardFunds() internal {\n\n        wallet.transfer(msg.value);\n\n    }\n\n    function withdraw() public onlyOwner {\n\n        wallet.transfer(this.balance);\n\n    }\n\n    function setWallet(address _wallet) public onlyOwner {\n\n        wallet = _wallet;\n        \n    }\n\n}",
  "sourcePath": "/home/test/work/my_git/simple-erc20-token/contracts/URLToken.sol",
  "compiler": {
    "name": "solc",
    "version": "0.4.18+commit.9cf6e910.Emscripten.clang"
  },
  "schemaVersion": "1.0.1",
  "updatedAt": "2018-03-15T10:04:24.771Z"
}